{
  "contractName": "CryptoDogi",
  "abi": [
    {
      "inputs": [],
      "stateMutability": "nonpayable",
      "type": "constructor"
    },
    {
      "anonymous": false,
      "inputs": [
        {
          "indexed": true,
          "internalType": "address",
          "name": "from",
          "type": "address"
        },
        {
          "indexed": true,
          "internalType": "address",
          "name": "to",
          "type": "address"
        },
        {
          "indexed": true,
          "internalType": "uint256",
          "name": "tokenId",
          "type": "uint256"
        }
      ],
      "name": "Transfer",
      "type": "event"
    },
    {
      "inputs": [
        {
          "internalType": "uint256",
          "name": "",
          "type": "uint256"
        }
      ],
      "name": "cryptoDogis",
      "outputs": [
        {
          "internalType": "string",
          "name": "",
          "type": "string"
        }
      ],
      "stateMutability": "view",
      "type": "function",
      "constant": true
    },
    {
      "inputs": [],
      "name": "name",
      "outputs": [
        {
          "internalType": "string",
          "name": "",
          "type": "string"
        }
      ],
      "stateMutability": "view",
      "type": "function",
      "constant": true
    },
    {
      "inputs": [],
      "name": "symbol",
      "outputs": [
        {
          "internalType": "string",
          "name": "",
          "type": "string"
        }
      ],
      "stateMutability": "view",
      "type": "function",
      "constant": true
    },
    {
      "inputs": [
        {
          "internalType": "string",
          "name": "_cryptoDogi",
          "type": "string"
        }
      ],
      "name": "mint",
      "outputs": [],
      "stateMutability": "nonpayable",
      "type": "function"
    }
  ],
  "bytecode": "0x60806040523480156200001157600080fd5b506040518060400160405280600a81526020017f43727970746f446f6769000000000000000000000000000000000000000000008152506040518060400160405280600481526020017f444f4749000000000000000000000000000000000000000000000000000000008152506040518060400160405280600a81526020017f43727970746f446f6769000000000000000000000000000000000000000000008152506040518060400160405280600481526020017f444f47490000000000000000000000000000000000000000000000000000000081525081600090805190602001906200010292919062000126565b5080600190805190602001906200011b92919062000126565b50505050506200023b565b828054620001349062000205565b90600052602060002090601f016020900481019282620001585760008555620001a4565b82601f106200017357805160ff1916838001178555620001a4565b82800160010185558215620001a4579182015b82811115620001a357825182559160200191906001019062000186565b5b509050620001b39190620001b7565b5090565b5b80821115620001d2576000816000905550600101620001b8565b5090565b7f4e487b7100000000000000000000000000000000000000000000000000000000600052602260045260246000fd5b600060028204905060018216806200021e57607f821691505b60208210811415620002355762000234620001d6565b5b50919050565b610c66806200024b6000396000f3fe608060405234801561001057600080fd5b506004361061004c5760003560e01c806306fdde031461005157806395d89b411461006f578063aa1276671461008d578063d85d3d27146100bd575b600080fd5b6100596100d9565b604051610066919061071c565b60405180910390f35b61007761016b565b604051610084919061071c565b60405180910390f35b6100a760048036038101906100a29190610788565b6101fd565b6040516100b4919061071c565b60405180910390f35b6100d760048036038101906100d291906108ea565b6102a9565b005b6060600080546100e890610962565b80601f016020809104026020016040519081016040528092919081815260200182805461011490610962565b80156101615780601f1061013657610100808354040283529160200191610161565b820191906000526020600020905b81548152906001019060200180831161014457829003601f168201915b5050505050905090565b60606001805461017a90610962565b80601f01602080910402602001604051908101604052809291908181526020018280546101a690610962565b80156101f35780601f106101c8576101008083540402835291602001916101f3565b820191906000526020600020905b8154815290600101906020018083116101d657829003601f168201915b5050505050905090565b6004818154811061020d57600080fd5b90600052602060002001600091509050805461022890610962565b80601f016020809104026020016040519081016040528092919081815260200182805461025490610962565b80156102a15780601f10610276576101008083540402835291602001916102a1565b820191906000526020600020905b81548152906001019060200180831161028457829003601f168201915b505050505081565b6005816040516102b991906109d0565b908152602001604051809103902060009054906101000a900460ff1615610315576040517f08c379a000000000000000000000000000000000000000000000000000000000815260040161030c90610a59565b60405180910390fd5b6004819080600181540180825580915050600190039060005260206000200160009091909190915090805190602001906103509291906105e0565b50600060016004805490506103659190610aa8565b905061037133826103ac565b600160058360405161038391906109d0565b908152602001604051809103902060006101000a81548160ff0219169083151502179055505050565b600073ffffffffffffffffffffffffffffffffffffffff168273ffffffffffffffffffffffffffffffffffffffff16141561041c576040517f08c379a000000000000000000000000000000000000000000000000000000000815260040161041390610b4e565b60405180910390fd5b6104258161056e565b15610465576040517f08c379a000000000000000000000000000000000000000000000000000000000815260040161045c90610bba565b60405180910390fd5b816002600083815260200190815260200160002060006101000a81548173ffffffffffffffffffffffffffffffffffffffff021916908373ffffffffffffffffffffffffffffffffffffffff1602179055506001600360008473ffffffffffffffffffffffffffffffffffffffff1673ffffffffffffffffffffffffffffffffffffffff16815260200190815260200160002060008282546105079190610bda565b92505081905550808273ffffffffffffffffffffffffffffffffffffffff16600073ffffffffffffffffffffffffffffffffffffffff167fddf252ad1be2c89b69c2b068fc378daa952ba7f163c4a11628f55a4df523b3ef60405160405180910390a45050565b6000806002600084815260200190815260200160002060009054906101000a900473ffffffffffffffffffffffffffffffffffffffff169050600073ffffffffffffffffffffffffffffffffffffffff168173ffffffffffffffffffffffffffffffffffffffff161415915050919050565b8280546105ec90610962565b90600052602060002090601f01602090048101928261060e5760008555610655565b82601f1061062757805160ff1916838001178555610655565b82800160010185558215610655579182015b82811115610654578251825591602001919060010190610639565b5b5090506106629190610666565b5090565b5b8082111561067f576000816000905550600101610667565b5090565b600081519050919050565b600082825260208201905092915050565b60005b838110156106bd5780820151818401526020810190506106a2565b838111156106cc576000848401525b50505050565b6000601f19601f8301169050919050565b60006106ee82610683565b6106f8818561068e565b935061070881856020860161069f565b610711816106d2565b840191505092915050565b6000602082019050818103600083015261073681846106e3565b905092915050565b6000604051905090565b600080fd5b600080fd5b6000819050919050565b61076581610752565b811461077057600080fd5b50565b6000813590506107828161075c565b92915050565b60006020828403121561079e5761079d610748565b5b60006107ac84828501610773565b91505092915050565b600080fd5b600080fd5b7f4e487b7100000000000000000000000000000000000000000000000000000000600052604160045260246000fd5b6107f7826106d2565b810181811067ffffffffffffffff82111715610816576108156107bf565b5b80604052505050565b600061082961073e565b905061083582826107ee565b919050565b600067ffffffffffffffff821115610855576108546107bf565b5b61085e826106d2565b9050602081019050919050565b82818337600083830152505050565b600061088d6108888461083a565b61081f565b9050828152602081018484840111156108a9576108a86107ba565b5b6108b484828561086b565b509392505050565b600082601f8301126108d1576108d06107b5565b5b81356108e184826020860161087a565b91505092915050565b600060208284031215610900576108ff610748565b5b600082013567ffffffffffffffff81111561091e5761091d61074d565b5b61092a848285016108bc565b91505092915050565b7f4e487b7100000000000000000000000000000000000000000000000000000000600052602260045260246000fd5b6000600282049050600182168061097a57607f821691505b6020821081141561098e5761098d610933565b5b50919050565b600081905092915050565b60006109aa82610683565b6109b48185610994565b93506109c481856020860161069f565b80840191505092915050565b60006109dc828461099f565b915081905092915050565b7f4572726f723a2043727970746f446f676920616c72656164792065786973747360008201527f2100000000000000000000000000000000000000000000000000000000000000602082015250565b6000610a4360218361068e565b9150610a4e826109e7565b604082019050919050565b60006020820190508181036000830152610a7281610a36565b9050919050565b7f4e487b7100000000000000000000000000000000000000000000000000000000600052601160045260246000fd5b6000610ab382610752565b9150610abe83610752565b925082821015610ad157610ad0610a79565b5b828203905092915050565b7f4552433732313a204d696e74696e6720746f2061207a65726f2061646472657360008201527f7321000000000000000000000000000000000000000000000000000000000000602082015250565b6000610b3860228361068e565b9150610b4382610adc565b604082019050919050565b60006020820190508181036000830152610b6781610b2b565b9050919050565b7f4552433732313a20546f6b656e20616c7265616479206d696e74656421000000600082015250565b6000610ba4601d8361068e565b9150610baf82610b6e565b602082019050919050565b60006020820190508181036000830152610bd381610b97565b9050919050565b6000610be582610752565b9150610bf083610752565b9250827fffffffffffffffffffffffffffffffffffffffffffffffffffffffffffffffff03821115610c2557610c24610a79565b5b82820190509291505056fea26469706673582212204ca3582d50c3c851eb97a511b3937cecd5ba756edf1401d0ee14a0611f054a3464736f6c634300080c0033",
  "immutableReferences": {},
  "source": "// SPDX-License-Identifier: MIT\r\npragma solidity ^0.8.11;\r\n\r\nimport './ERC721Connector.sol';\r\n\r\ncontract CryptoDogi is ERC721Connector {\r\n\r\n    // array that stores our NFTs\r\n    string[] public cryptoDogis;\r\n\r\n    mapping(string => bool) _cryptoDogiExists;\r\n    \r\n    constructor() ERC721Connector('CryptoDogi', 'DOGI') {\r\n    \r\n    }\r\n\r\n    function mint(string memory _cryptoDogi) public {\r\n        require(!_cryptoDogiExists[_cryptoDogi], 'Error: CryptoDogi already exists!');\r\n        cryptoDogis.push(_cryptoDogi);\r\n        uint _id = cryptoDogis.length - 1;\r\n        \r\n        _mint(msg.sender, _id);\r\n\r\n        _cryptoDogiExists[_cryptoDogi] = true;\r\n    }\r\n}",
  "sourcePath": "C:\\Users\\juane\\Desktop\\Juan\\Projects\\nft-marketplace-starter-kit\\src\\contracts\\CryptoDogis.sol",
  "compiler": {
    "name": "solc",
    "version": "0.8.12+commit.f00d7308.Emscripten.clang"
  },
  "schemaVersion": "3.4.5",
  "updatedAt": "2022-02-25T03:57:50.992Z",
  "networkType": "ethereum",
  "devdoc": {
    "kind": "dev",
    "methods": {},
    "version": 1
  },
  "userdoc": {
    "kind": "user",
    "methods": {},
    "version": 1
  }
}